:020000040000FA
:1000000058040020F5000000F9000000FB0000008B
:10001000FD000000FF0000000101000000000000E2
:1000200000000000000000000000000003010000CC
:1000300005010000000000000701000009010000A8
:100040000B0100000B0100000B0100008F020000FB
:100050000B010000910200000B0100000B010000E9
:100060000B0100000B0100000000000093020000E3
:10007000950200009702000099020000B7020000FC
:100080000B010000B90200000B0100000B01000091
:100090000B0100000B0100000B0100000B01000030
:1000A0000B0100000B0100000B0100000B01000020
:1000B0000B0100000B0100000B0100000B01000010
:1000C0000B0100000B0100000B0100000103000008
:1000D0000303000005030000070300000000000008
:1000E000DFF80CD000F0E4FE004800479701000064
:1000F0005804002005480047FEE7FEE7FEE7FEE75C
:10010000FEE7FEE7FEE7FEE7FEE7FEE7E1000000B0
:1001100010B501221146824800F0E1F948F280034F
:100120000E227C217E4800F073F90023202219461C
:100130007B4800F053F94FF470320021784800F00A
:100140009DF920220021764800F0B8F910BD10B5C5
:1001500000231A461946102000F0ADFA714900201C
:1001600000F0A4FA10BD10B56F48008840F03C00C4
:100170006D490880002303224FF416516B4800F0AC
:1001800087FB00220121694800F0EBFB3F21674813
:1001900000F0F7FB10BD0024002500206449088012
:1001A00008216148303000F0F6FA002202211046A2
:1001B00000F0D8F840F2771000F066FA00231A46F3
:1001C0001946184600F036FA072300221946062081
:1001D00000F043FA0321524800F02CF9FFF7C3FF67
:1001E000FFF7B5FFFFF794FF01214D4800F022F91A
:1001F0000E2000F089F8112000F086F841E04D480B
:10020000007801283DD108214748303000F03AFB02
:100210000020484908704848006848490860484834
:1002200008604848006800F0F6FB0646434801684D
:10023000304600F0BAFB404908600846006800F00C
:10024000F3FB064632460B463FA1434800F0D2FE80
:10025000414800F0A3FBC5B2402D12DA00240EE0A5
:1002600000203E4908703C48015D304800F06CFBBE
:1002700000BF3A4800780028FBD0601CC4B2AC42F2
:10028000EEDBBCE700E0401E0028FCDC7047704756
:10029000704770477047704708B5002000902048AD
:1002A000007800901E4800F0E3F82649086001201D
:1002B0002049087008BD70470EB5002002900190DB
:1002C00000901A4800F03DFBC0B20290174800F0C1
:1002D0005CFBC0B201909DF8040000F0020002280F
:1002E00002D101201D4908709DF8040000F00400AF
:1002F000042804D10D4800F031FB194908700EBDE7
:10030000704770477047704700F01F02012191400D
:1003100042094FF0E02303EB8202C2F8001170475C
:10032000800003400000FF010060004000500040DA
:1003300088250040000000200C0000201000002054
:100340009A99993104000020566F6C746167653A80
:1003500020256656200D0A00140000200100002010
:100360000800002030B503460C461948008800F00C
:10037000200141F04001194321431143144D2980CC
:10038000012030BD014619B90020124A106002E078
:100390000120104A10604FF00100704701460C4ADE
:1003A000083A1180012070470948001F00887047F3
:1003B00007481030008870470748006830B94CF68D
:1003C000CC400349091D0880012070470020FCE74C
:1003D0008825004014B1044204B3044270B50446B9
:1003E0000D460021A08C4FF6077600EA060102F0C8
:1003F000F8000843A084A068874E00EA06010BB10C
:1004000041F4802105F440500843A060012070BDF4
:1004100070B50446002501F07F004FF4706606EACF
:10042000022630434DF280061E4040EA0605258430
:10043000208C70BD10B502460B460021916813B1A7
:1004400041F4002101E021F400219068084390600C
:10045000908C724C00EA040103F00700084390847A
:10046000012010BD014608787047014608797047A1
:100470000146886C70470146C868704730B503462E
:100480000C4600219868664D00EA050102F47030C0
:1004900001439960988B00F47F5104F00F000143F1
:1004A0009983012030BD0246002393685D480340D4
:1004B00001F44060184390600120704730B5034656
:1004C0000C4600219868584D00EA050102F4787046
:1004D000014304F01F0001439960012030BD034631
:1004E00002B119711879704730B504460D460021E4
:1004F000A08B00F01F0105F4E060014402F44050BD
:10050000014403F0C0000843A083012030BD02462F
:1005100001F00400042806D1107940F004001071A5
:10052000042082F8440001F00800082806D1107960
:1005300040F008001071302082F84400012070471C
:1005400030B50446002541EA0200184305432580E2
:10055000012030BD0246052A59D2DFE802F003141B
:100560002536470039B93148008800F01E00304B6D
:10057000A3F8F80006E02D48008840F001002C4B5D
:10058000A3F8F80044E039B92848008800F01E00BC
:10059000274BA3F8F80006E02448008840F0030049
:1005A000234BA3F8F80033E039B92048008800F065
:1005B0001B001F4BA3F8F80006E01C48008840F021
:1005C00004001B4BA3F8F80022E039B91748008853
:1005D00000F01B00164BA3F8F80006E01348008853
:1005E00040F00C00124BA3F8F80011E039B90F48A5
:1005F000008800F00F000E4BA3F8F80006E00B484F
:10060000008840F010000A4BA3F8F80000E000BF9B
:1006100000BF012070470000FFCFFF0FF8FF0F0061
:10062000FF3F0C00FFF30F0000FCFF00F800034049
:100630000000034070B504460D4604F0070105F0C4
:10064000030041EAC00103F0070041EA40111548E8
:100650000180154E3280012070BD70B504460D46F4
:1006600004F0070141EAC40105F0070041EA8011E6
:1006700002F0070041EA402103F0070041EA00319F
:10068000084EB180012070BD0146064A91850120C7
:100690007047014601F005020348343802700078C3
:1006A00070470000002000404424004002463248C9
:1006B00041604068704770B504460D4603F4007011
:1006C000B0F5007F05D14FF400712B480180008800
:1006D00070BDA8182044C118274E318030460088CC
:1006E000F6E730B504460B46B2F1807F06DB1046D4
:1006F000D51702EB5545EA13032119E0B2F5801F27
:1007000006DB1046D51702EB15652A1202210FE011
:10071000B2F5802F06DB1046D51702EB15752A11AE
:10072000012105E01046D51702EB9575AA100021AE
:1007300041F01801114D2A801048083001800E4800
:10074000018840F6DF7001400BB141F020010A48FA
:100750000180008830BD024631B10748008840F46E
:100760008060054B188005E00348008820F4806015
:10077000014B188001207047000002400004004037
:10078000024611800120704710B504462171227283
:100790002373012010BD02461171012070470246EB
:1007A0001172012070470246117301207047014603
:1007B000FF200873087108760120704730B50346A2
:1007C00014461A884D000320A8404FF6FF75281ADA
:1007D0000240480004FA00F0104482B21A8001205E
:1007E00030BD10B5034614461A7901208840C0F187
:1007F000FF00024004FA01F0104482B21A71012095
:1008000010BD10B5034614461A7A01208840C0F185
:10081000FF00024004FA01F0104482B21A72012073
:1008200010BD10B5034614461A7B01208840C0F164
:10083000FF00024004FA01F0104482B21A73012052
:1008400010BD02460B460120984081B2107B084340
:100850001073107908431071107E08431076012040
:1008600070470146087D704702461176107E70473A
:1008700002461177107F7047024682F8201092F8E6
:1008800020007047024682F8241092F82400704736
:10089000F0B504460D4616461F463D48808800F4D4
:1008A00060614912082915D2DFE801F00406080A40
:1008B0000C0E101201210EE002210CE004210AE0CE
:1008C000082108E0102106E0202104E0402102E098
:1008D000802100E000BF00BF2E48008810F0010F0B
:1008E00000D0490048012C4B93FBF0F090FBF5F24F
:1008F000228548014FF4006393FBF0F0264B5843E8
:1009000090FBF2F090FBF5F0A0F5006080B240F4AF
:100910000840A0840020207107F03C0006F003038B
:1009200018432073207DF0BD024621B9107B00F0F2
:100930003F00107303E0107B40F040001073107D07
:1009400070470146087D70470246107D10F0200F69
:1009500002D01170012070470020FCE701460878A2
:100960007047034602B11974187E70470146087E2D
:1009700070470246107920F030030B4313710120B9
:10098000704702461171012070470146087A70478E
:1009900000200040442400400024F400421C10F8D1
:1009A000011B0029FBD1801A704780EA010210B5B3
:1009B00002F00043400026D04A0023D04FEA1061E5
:1009C00001EB1261C0F35600C2F3560240F400007E
:1009D00042F40002A0FB0220A1F17F014FEA004097
:1009E000140401D000F1010050EA124001D440008B
:1009F000491EC2B20C0604EBD010401C4008802AED
:100A000002D003E0002010BD20F00100002900DA30
:100A10000020184310BDC10F80EAE0700844CA07E7
:100A20009623002100F063B800F0004230F000404F
:100A30000AD0C10D01F56071C0F3160042EA015100
:100A4000C20840071143704700200146704730B587
:100A50000B46014600202022012409E021FA02F57C
:100A60009D4205D303FA02F5491B04FA02F5284416
:100A7000151EA2F10102F1DC30BD2DE9F05F054643
:100A8000002092469B4688460646814640241BE04D
:100A9000284641464746224600F02BFA53465A461E
:100AA000C01A914110D311461846224600F012FA9E
:100AB0002D1A67EB01084F4622460120002100F065
:100AC00009FA17EB00094E41201EA4F10104DFDCF6
:100AD000484631462A464346BDE8F09F0029A8BF54
:100AE0007047401C490008BF20F00100704710B457
:100AF000B0FA80FC00FA0CF050EA010404BF10BC0C
:100B0000704749B1CCF1200421FA04F411FA0CF138
:100B100018BF012121430843A3EB0C01CB1D0106A3
:100B2000000A002BBEBF002010BC704700EBC35072
:100B300010440029A4BF10BC7047401C490008BFE6
:100B400020F0010010BC70472DE9FE4F804681EA7D
:100B50000300C00F0C46009021F0004123F0004537
:100B6000B8EB0200A94105D24046214690461C46FA
:100B70000B46024623F00040104304D14046214674
:100B800003B0BDE8F08F270DC7F30A00C3F30A5185
:100B90000290401A0190402866DAC3F3130040F433
:100BA000801B0098924620B10023D2EB030A63EB2E
:100BB0000B0B01985946C0F14002504600F08AF9EB
:100BC00006460D4650465946019A00F0A2F910EB30
:100BD00008006141002487EA115284EAE7731A434E
:100BE0003BD0009A3AB3019A012A4FEA075210DC2F
:100BF000001B61EB02014FF0004202EA0752CDE90F
:100C00000042001C41F5801132462B4600F0A0F94D
:100C1000B6E7001B61EB0201001C41F580130018D0
:100C20005B412018A2F5001747EB030140EAD5709D
:100C3000B6196D4111E06D084FEA360645EAC075F8
:100C40004FEA0752001B61EB0201001C41F58011C5
:100C500049084FEA30000019514132462B4603B093
:100C6000BDE8F04F00F067B9009801224000002372
:100C7000D0EB020263EBE073009821464FEAE07488
:100C8000B8EB000061EB0401E9E783F000435BE7A8
:100C900081F0004158E72DE9FE4F81EA030404F09A
:100CA000004421F0004100944FF0000B23F000437A
:100CB00050EA010402D052EA030404D100200146A4
:100CC00003B0BDE8F08FC3F30A54C1F30A552C44B6
:100CD000A4F2F3340194A0FB0254C1F3130141F4D4
:100CE0008011C3F3130343F4801301FB024400FBA0
:100CF000034E840A970A44EA815447EA8357A4FBC7
:100D0000076802958D0A05FB07854FEA932C04FBC3
:100D10000C542705029D4FEA065847EA1637B5EBF3
:100D200008056EEB070C870E920E47EA811742EA20
:100D30008312A7FB0201B6EB0B0164EB00042B0D41
:100D400043EA0C335E1844EB1C50DA465146E7FB8D
:100D50000201C5F313044FEA0B3343EA14534FEA7D
:100D60000432019C43EA0603A4F10C040294009CA3
:100D7000CDE900B400F0ECF8A2E72DE9F04D81EAEE
:100D8000030404F0004B21F0004514464FF0000A24
:100D900023F0004150EA050220D054EA01021DD0A0
:100DA000C5F30A570246C5F31303C1F31300C1F399
:100DB0000A5640F4801543F48013A7EB0608101B75
:100DC000D64608F2FD3873EB050002D308F101089E
:100DD00001E092185B41B8F1000F03DA00200146F0
:100DE000BDE8F08D00204FF48011064684460EE0E9
:100DF000171B73EB050705D3121B63EB05030643B3
:100E00004CEA010C49084FEA300092185B4150EA65
:100E10000107EDD152EA030012D082EA040083EA0E
:100E20000501084303D100224FF0004308E0101BE6
:100E3000AB4102D20122002302E06FF00102531005
:100E40001AEB06004CEB085110EB0A0041EB0B01CA
:100E5000BDE8F04D00F06FB8C1F30A52C1F31301C1
:100E600040F2FF3341F480119A4202DA0020014639
:100E7000704740F233439A42A2F2334202DC5242BC
:100E800000F037B800F026B830B5002904DB4FF089
:100E90000044404264EB0101002B04DB4FF00044AE
:100EA000524264EB0303994208BF904230BD0000F8
:100EB000064C074D06E0E06840F0010394E80700A7
:100EC00098471034AC42F6D3FFF70EF9E81800004B
:100ED00008190000202A04DB203A00FA02F1002061
:100EE00070479140C2F1200320FA03F31943904068
:100EF0007047202A04DB203A21FA02F000217047D3
:100F000021FA02F3D040C2F1200291400843194671
:100F10007047202A06DBCB17203A41FA02F043EA59
:100F2000E07306E041FA02F3D040C2F120029140A2
:100F300008431946704710B5002B08DA401C41F1F0
:100F4000000192185B411A4301D120F0010010BD4D
:100F50002DE9F04D92469B4611B1B1FA81F202E0C3
:100F6000B0FA80F220329046FFF7B4FF04460F46F5
:100F700040EA0A0041EA0B0153465A46084303D1AE
:100F800020463946BDE8F08D114653EA010015D0E0
:100F9000C8F140025046FFF7ACFF05460E465046EA
:100FA00059464246FFF796FF084301D0012000E072
:100FB0000020054346EAE0762C4337430A984FEA7F
:100FC0004453A0EB08004FEAD4240A304FF000024B
:100FD00044EA47544FEAD72502D500200146D1E71D
:100FE000010510196941DDE9084500196941BDE8AD
:100FF000F04DA0E70FB4084B10B504A902AA03985E
:1010000000F0CAF8044602A9002000F068FC20465F
:1010100010BC5DF814FB0000DF18000002E008C8F7
:10102000121F08C1002AFAD170477047002001E062
:1010300001C1121F002AFBD1704700002DE9FF5F9C
:10104000DDE90220010DDDF838B0024310D10F9820
:1010500001244CA2012808D0002100980F9BC0E970
:101060000021C0E90243BDE8FF9F6FEA0B01F4E7EE
:10107000A1F2FF3144F6105041430D140F9801289E
:101080000ED0A5EB0B00401C4FF000043E4EDFF8E5
:10109000FC90B0F1000AA04605DACAF1000717E09B
:1010A000CBF10000F0E7074612E0F80707D0224630
:1010B000334640464946FFF7EEFD804689462246C4
:1010C000334610461946FFF7E6FD04460E467F10EC
:1010D000002FEAD1DDE90201BAF1000F42464B468A
:1010E00002DAFFF7D8FD01E0FFF747FE04460E469F
:1010F0000022274BFFF7C8FE03D84FF0FF30014610
:1011000007E00022234B20463146FFF71DFDFFF785
:10111000A3FE102409E0002C0ADB0A220023FFF7BB
:10112000ACFC019B30321A55641E50EA0102F2D128
:10113000641C019AC4F1110314440F9A012A09D0C6
:101140000122084301D15B450FDD4FF0000205F19C
:1011500001050DE0084303D1A3EB0B056D1E09E06B
:1011600000204FF0110B0F9088E701DA00226D1E6E
:10117000002A83D000980F99C0E90231C0E90045E8
:1011800071E7000030000000000024400000F03F44
:101190000000F0430000E03F2DE9FF4F95B09B4673
:1011A00089460646002512E2252878D10024761CBF
:1011B000F94A2746012105943378203B01FA03F0D0
:1011C000104202D00443761CF6E730782A2811D06A
:1011D0006FF02F033078A0F13002092A16D8059A53
:1011E00044F0020402EB820203EB42021044761C3C
:1011F0000590EFE759F8042B0592002A03DA5042D4
:1012000044F40054059044F00204761C30782E28F3
:1012100016D116F8010F44F004042A280DD06FF0FF
:101220002F023078A0F13003092B09D807EB870390
:1012300002EB4303C718761CF3E759F8047B761CCE
:1012400030786C280FD006DC4C2817D068280DD0D9
:101250006A2814D104E0742810D07A280FD10DE048
:1012600044F400140AE044F4801401E044F440140F
:101270007278824202D1761C04F58014761C307894
:1012800066280BD013DC582877D009DC002875D0ED
:101290004528F6D04628F4D047281AD19FE118E017
:1012A000632835D0642879D0652812D197E1702859
:1012B00073D008DC6728F1D069286FD06E280DD074
:1012C0006F2806D1B5E073282CD0752875D0782802
:1012D00074D05A46179990476D1C76E1C4F30250BA
:1012E000022809D003280DD0D9F8001004280DD009
:1012F0000D6009F1040968E1D9F80010EA17C1E9A5
:101300000052F6E7D9F800100D80F2E70D70F0E713
:1013100019F8041B8DF8001000208DF80100EA4632
:10132000012003E059F804AB4FF0FF3061074FF0A4
:10133000000102D40DE008F101018846B9420FDA3C
:101340008045F8DB1AF808100029F4D108E008F10C
:10135000010188468142FADB1AF808100029F6D10B
:1013600005985B46A0EB080721463846179A00F01F
:101370009EFA284400EB080507E04DE02BE10DE064
:101380001AF8010B5A4617999047B8F10108F7D29D
:101390005B4621463846179A14E142E00A22009241
:1013A000C4F302524FF0000A022A08D059F804CBC5
:1013B000032A4FEAEC710AD00DE029E02AE009F196
:1013C000070121F00702F2E802C1914609E00FFA95
:1013D0008CFC4FEAEC71042A03D14FFA8CFC4FEAE3
:1013E000EC71002907DA0A460021DCF1000C61EB00
:1013F00002012D2202E0220504D52B228DF80420C3
:10140000012203E0E20701D02022F7E7904653E0F3
:101410000A2102E010220DE010214FF0000A009195
:101420000BE010224FF0000A44F004040827009259
:1014300003E008224FF0000A0092C4F30252022A8D
:1014400005D059F804CB0021032A08D009E009F19E
:10145000070121F00702F2E802C1914605E01FFAF8
:101460008CFC042A01D10CF0FF0C4FF0000822077D
:1014700022D5702827D0009B83F0100353EA0A037B
:1014800009D15CEA010206D030228DF804208DF8E3
:10149000050002229046009B83F0080353EA0A03EA
:1014A0000AD15CEA010201D1620705D530228DF82C
:1014B00004204FF001087F1E582809D037A0039060
:1014C0000EA8029013E040228DF804200122E1E7EB
:1014D00037A0F4E753466046009AFFF7CEFA8446F9
:1014E0000398825C0298A0F10100029002705CEA0D
:1014F0000100EFD1029806A9A1EB000000F1200A3B
:10150000600702D524F4803400E00127574502DD4E
:10151000A7EB0A0000E0002000EB0A01009005980C
:101520004144A0EB01000590E00306D45B46214650
:10153000179A059800F0BBF90544002706E001A8BA
:101540005A46C05D179990476D1C7F1C4745F6DBD6
:10155000E0030CD55B462146179A059800F0A7F9E1
:10156000054404E030205A46179990476D1C0099B5
:10157000481E00900029F5DC08E0029802995A46BE
:101580000078491C0291179990476D1CBAF100012F
:10159000AAF1010AF1DC6BE1092801003031323394
:1015A000343536373839616263646566000000009F
:1015B0003031323334353637383941424344454689
:1015C0000000000000F060F9054406F101063078E3
:1015D00000287FF4E9AD19B02846BDE8F08F620716
:1015E00000D4062709F1070222F0070CFCE80223C9
:1015F000E14603F000485FEA080C02D00FF27C2CB1
:101600000DE05FEA045C02D50FF2742C07E05FEA9C
:10161000C47C02D00FF26C2C01E0AFF2700C4FF0E2
:10162000FF3823F00043CDF850C065280CD006DC0D
:10163000452809D046281DD047283ED13EE06628DF
:1016400018D0672839D139E00021112F01DB112092
:1016500000E0781CCDE9000106A90EA8FFF7EEFC1A
:10166000DDE90F010E9A03910021009207F1010AB2
:1016700004914EE04FF000400097CDE9011006A91B
:101680000EA8FFF7DBFCDDE90F0203920E9B119918
:101690000022DDF80CA00093049219B907F10101B2
:1016A00000EB010AB7EB0A0004D4C0F1FF3007F1E8
:1016B000010A0490AAEB0700019046E0012F00DA2E
:1016C00001270021112F01DD112000E03846CDE96E
:1016D000000106A90EA8FFF7B1FCDDE90F010E9A83
:1016E0000391002104910092BA4621070CD403997A
:1016F000514500DA8A46BAF1010F05DD009AAAF1D8
:101700000101515C302908D0B84202DA10F1040F0F
:1017100006DA0121CDE9011017E0AAF10101E9E79C
:10172000002805DC049901440491AAEB000102E0C1
:10173000411C514500DD8A460499A0EB010000F1EF
:10174000010001904FF000400290200704D401985E
:10175000504501DBCDF8048000208DF84F00029841
:101760000DF14F07B0F1004F25D02B200E900298BD
:101770004FF0020800280CDA404202902D200E9013
:1017800007E00A210298FFF762F93031029007F86A
:10179000011DB8F10001A8F10108F2DC029800284F
:1017A000EFD1791E0E980870307800F0200040F0DC
:1017B000450007F8020D12A8A0EB070000F107088A
:1017C0001498007800B1012000EB0A01019801EBA8
:1017D000E07105984144A0EB0100A0F101000590E3
:1017E000E00306D45B462146179A059800F05FF89F
:1017F00005441498007820B15A461799904705F18E
:101800000105E00323D55B462146179A059800F0B1
:101810004EF805441BE00498002807DBDDE90301CE
:10182000884203DD0098405C179901E01799302049
:101830005A46904704986D1C401C04900198401E25
:10184000019004D12E205A46179990476D1CBAF189
:101850000001AAF1010ADEDC05E017F8010B5A4687
:10186000179990476D1CB8F10001A8F10108F4DC4C
:101870005B462146179A0598A4E600002D0000005B
:101880002B000000200000002DE9F0410446002557
:101890001E461746880405D406E039462020B04786
:1018A00005F10105641EF8D52846BDE8F0812DE953
:1018B000F041044600251E469046C80301D5302756
:1018C00000E02027880405D506E041463846B047A9
:1018D00005F10105641EF8D52846BDE8F0810A68C7
:1018E000531C0B60107070470819000000000020A6
:1018F000140000001C1000001C190000140000203F
:10190000440400002C100000000000000000000053
:0C191000000000000000000000000000CB
:04000005000000E116
:00000001FF
