:1000000000040020E9010000F5010000F5010000F6
:10001000F5010000F5010000F501000000000000FE
:10002000000000000000000000000000F5010000DA
:10003000F501000000000000F5010000F5010000DE
:100040008B010000F5010000F50100008D010000AA
:10005000F50100008F010000F5010000F50100002E
:10006000F5010000F5010000000000009101000012
:100070009301000095010000970100009901000024
:10008000F50100009B010000F5010000F5010000F2
:100090009D010000F5010000F5010000F5010000E0
:1000A000F5010000F5010000F5010000F501000078
:1000B000F5010000F5010000F5010000F501000068
:1000C000F5010000F5010000F50100009F010000AE
:1000D000A1010000A3010000A50100000000000034
:1000E00010F0070011F0030150EAC10013F00701FE
:1000F00050EA41101E4908801E48028001207047C6
:100100001B4988850120704701710120704780F8E4
:10011000241090F824007047174B1B889BB213F0F3
:10012000200353F0400303430B431343124803805F
:1001300001207047002202210020FFF7EDFF082177
:100140000E48FFF7E1FF40F2FF30FFF7D9FF002331
:10015000002200210020FFF7C3FF08210748FFF716
:10016000D6FF5FF4C02000F00BF8F6E700000000B7
:1001700000200040442400408825004030600040BA
:1001800000E0401E0128FCDA704770477047704756
:1001900070477047704770477047704770477047A7
:1001A000704770477047000000F009F8002801D040
:1001B000C046C0460020FFF7BDFF00F002F8012056
:1001C000704700F001B800000746384600F002F81A
:1001D000FBE70000C046C046024A11001820ABBE33
:1001E000FBE700BF26000200C046C046C046C0462E
:0801F000FFF7DAFFFFF7FEBF85
:04000005000001E90D
:00000001FF
